{
  "_format": "hh-sol-artifact-1",
  "contractName": "Silicon",
  "sourceName": "contracts/Silicon.sol",
  "abi": [
    {
      "inputs": [],
      "stateMutability": "nonpayable",
      "type": "constructor"
    },
    {
      "anonymous": false,
      "inputs": [
        {
          "indexed": true,
          "internalType": "address",
          "name": "owner",
          "type": "address"
        },
        {
          "indexed": true,
          "internalType": "address",
          "name": "spender",
          "type": "address"
        },
        {
          "indexed": false,
          "internalType": "uint256",
          "name": "value",
          "type": "uint256"
        }
      ],
      "name": "Approval",
      "type": "event"
    },
    {
      "anonymous": false,
      "inputs": [
        {
          "indexed": true,
          "internalType": "address",
          "name": "previousOwner",
          "type": "address"
        },
        {
          "indexed": true,
          "internalType": "address",
          "name": "newOwner",
          "type": "address"
        }
      ],
      "name": "OwnershipTransferred",
      "type": "event"
    },
    {
      "anonymous": false,
      "inputs": [
        {
          "indexed": true,
          "internalType": "address",
          "name": "from",
          "type": "address"
        },
        {
          "indexed": true,
          "internalType": "address",
          "name": "to",
          "type": "address"
        },
        {
          "indexed": false,
          "internalType": "uint256",
          "name": "value",
          "type": "uint256"
        }
      ],
      "name": "Transfer",
      "type": "event"
    },
    {
      "inputs": [
        {
          "internalType": "address",
          "name": "owner",
          "type": "address"
        },
        {
          "internalType": "address",
          "name": "spender",
          "type": "address"
        }
      ],
      "name": "allowance",
      "outputs": [
        {
          "internalType": "uint256",
          "name": "",
          "type": "uint256"
        }
      ],
      "stateMutability": "view",
      "type": "function"
    },
    {
      "inputs": [
        {
          "internalType": "address",
          "name": "spender",
          "type": "address"
        },
        {
          "internalType": "uint256",
          "name": "amount",
          "type": "uint256"
        }
      ],
      "name": "approve",
      "outputs": [
        {
          "internalType": "bool",
          "name": "",
          "type": "bool"
        }
      ],
      "stateMutability": "nonpayable",
      "type": "function"
    },
    {
      "inputs": [
        {
          "internalType": "address",
          "name": "account",
          "type": "address"
        }
      ],
      "name": "balanceOf",
      "outputs": [
        {
          "internalType": "uint256",
          "name": "",
          "type": "uint256"
        }
      ],
      "stateMutability": "view",
      "type": "function"
    },
    {
      "inputs": [],
      "name": "decimals",
      "outputs": [
        {
          "internalType": "uint8",
          "name": "",
          "type": "uint8"
        }
      ],
      "stateMutability": "view",
      "type": "function"
    },
    {
      "inputs": [
        {
          "internalType": "address",
          "name": "spender",
          "type": "address"
        },
        {
          "internalType": "uint256",
          "name": "subtractedValue",
          "type": "uint256"
        }
      ],
      "name": "decreaseAllowance",
      "outputs": [
        {
          "internalType": "bool",
          "name": "",
          "type": "bool"
        }
      ],
      "stateMutability": "nonpayable",
      "type": "function"
    },
    {
      "inputs": [
        {
          "internalType": "address",
          "name": "spender",
          "type": "address"
        },
        {
          "internalType": "uint256",
          "name": "addedValue",
          "type": "uint256"
        }
      ],
      "name": "increaseAllowance",
      "outputs": [
        {
          "internalType": "bool",
          "name": "",
          "type": "bool"
        }
      ],
      "stateMutability": "nonpayable",
      "type": "function"
    },
    {
      "inputs": [
        {
          "internalType": "address",
          "name": "to",
          "type": "address"
        }
      ],
      "name": "mint",
      "outputs": [],
      "stateMutability": "nonpayable",
      "type": "function"
    },
    {
      "inputs": [],
      "name": "name",
      "outputs": [
        {
          "internalType": "string",
          "name": "",
          "type": "string"
        }
      ],
      "stateMutability": "view",
      "type": "function"
    },
    {
      "inputs": [],
      "name": "owner",
      "outputs": [
        {
          "internalType": "address",
          "name": "",
          "type": "address"
        }
      ],
      "stateMutability": "view",
      "type": "function"
    },
    {
      "inputs": [],
      "name": "renounceOwnership",
      "outputs": [],
      "stateMutability": "nonpayable",
      "type": "function"
    },
    {
      "inputs": [
        {
          "internalType": "address",
          "name": "from",
          "type": "address"
        },
        {
          "internalType": "address",
          "name": "to",
          "type": "address"
        },
        {
          "internalType": "uint256",
          "name": "amount",
          "type": "uint256"
        }
      ],
      "name": "swap",
      "outputs": [],
      "stateMutability": "nonpayable",
      "type": "function"
    },
    {
      "inputs": [],
      "name": "symbol",
      "outputs": [
        {
          "internalType": "string",
          "name": "",
          "type": "string"
        }
      ],
      "stateMutability": "view",
      "type": "function"
    },
    {
      "inputs": [],
      "name": "totalSupply",
      "outputs": [
        {
          "internalType": "uint256",
          "name": "",
          "type": "uint256"
        }
      ],
      "stateMutability": "view",
      "type": "function"
    },
    {
      "inputs": [
        {
          "internalType": "address",
          "name": "to",
          "type": "address"
        },
        {
          "internalType": "uint256",
          "name": "amount",
          "type": "uint256"
        }
      ],
      "name": "transfer",
      "outputs": [
        {
          "internalType": "bool",
          "name": "",
          "type": "bool"
        }
      ],
      "stateMutability": "nonpayable",
      "type": "function"
    },
    {
      "inputs": [
        {
          "internalType": "address",
          "name": "from",
          "type": "address"
        },
        {
          "internalType": "address",
          "name": "to",
          "type": "address"
        },
        {
          "internalType": "uint256",
          "name": "amount",
          "type": "uint256"
        }
      ],
      "name": "transferFrom",
      "outputs": [
        {
          "internalType": "bool",
          "name": "",
          "type": "bool"
        }
      ],
      "stateMutability": "nonpayable",
      "type": "function"
    },
    {
      "inputs": [
        {
          "internalType": "address",
          "name": "newOwner",
          "type": "address"
        }
      ],
      "name": "transferOwnership",
      "outputs": [],
      "stateMutability": "nonpayable",
      "type": "function"
    }
  ],
  "bytecode": "0x60806040523480156200001157600080fd5b506040518060400160405280600581526020017f426f726f6e0000000000000000000000000000000000000000000000000000008152506040518060400160405280600381526020017f42524e000000000000000000000000000000000000000000000000000000000081525081600390805190602001906200009692919062000378565b508060049080519060200190620000af92919062000378565b505050620000d2620000c66200011e60201b60201c565b6200012660201b60201c565b6200011833620000e7620001ec60201b60201c565b600a620000f5919062000583565b69d3c21bcecceda10000006200010c9190620006c0565b620001f560201b60201c565b620007d9565b600033905090565b6000600560009054906101000a900473ffffffffffffffffffffffffffffffffffffffff16905081600560006101000a81548173ffffffffffffffffffffffffffffffffffffffff021916908373ffffffffffffffffffffffffffffffffffffffff1602179055508173ffffffffffffffffffffffffffffffffffffffff168173ffffffffffffffffffffffffffffffffffffffff167f8be0079c531659141344cd1fd0a4f28419497f9722a3daafe3b4186f6b6457e060405160405180910390a35050565b60006012905090565b600073ffffffffffffffffffffffffffffffffffffffff168273ffffffffffffffffffffffffffffffffffffffff16141562000268576040517f08c379a00000000000000000000000000000000000000000000000000000000081526004016200025f906200047b565b60405180910390fd5b6200027c600083836200036e60201b60201c565b8060026000828254620002909190620004cb565b92505081905550806000808473ffffffffffffffffffffffffffffffffffffffff1673ffffffffffffffffffffffffffffffffffffffff1681526020019081526020016000206000828254620002e79190620004cb565b925050819055508173ffffffffffffffffffffffffffffffffffffffff16600073ffffffffffffffffffffffffffffffffffffffff167fddf252ad1be2c89b69c2b068fc378daa952ba7f163c4a11628f55a4df523b3ef836040516200034e91906200049d565b60405180910390a36200036a600083836200037360201b60201c565b5050565b505050565b505050565b828054620003869062000738565b90600052602060002090601f016020900481019282620003aa5760008555620003f6565b82601f10620003c557805160ff1916838001178555620003f6565b82800160010185558215620003f6579182015b82811115620003f5578251825591602001919060010190620003d8565b5b50905062000405919062000409565b5090565b5b80821115620004245760008160009055506001016200040a565b5090565b600062000437601f83620004ba565b91507f45524332303a206d696e7420746f20746865207a65726f2061646472657373006000830152602082019050919050565b620004758162000721565b82525050565b60006020820190508181036000830152620004968162000428565b9050919050565b6000602082019050620004b460008301846200046a565b92915050565b600082825260208201905092915050565b6000620004d88262000721565b9150620004e58362000721565b9250827fffffffffffffffffffffffffffffffffffffffffffffffffffffffffffffffff038211156200051d576200051c6200076e565b5b828201905092915050565b6000808291508390505b60018511156200057a578086048111156200055257620005516200076e565b5b6001851615620005625780820291505b80810290506200057285620007cc565b945062000532565b94509492505050565b6000620005908262000721565b91506200059d836200072b565b9250620005cc7fffffffffffffffffffffffffffffffffffffffffffffffffffffffffffffffff8484620005d4565b905092915050565b600082620005e65760019050620006b9565b81620005f65760009050620006b9565b81600181146200060f57600281146200061a5762000650565b6001915050620006b9565b60ff8411156200062f576200062e6200076e565b5b8360020a9150848211156200064957620006486200076e565b5b50620006b9565b5060208310610133831016604e8410600b84101617156200068a5782820a9050838111156200068457620006836200076e565b5b620006b9565b62000699848484600162000528565b92509050818404811115620006b357620006b26200076e565b5b81810290505b9392505050565b6000620006cd8262000721565b9150620006da8362000721565b9250817fffffffffffffffffffffffffffffffffffffffffffffffffffffffffffffffff04831182151516156200071657620007156200076e565b5b828202905092915050565b6000819050919050565b600060ff82169050919050565b600060028204905060018216806200075157607f821691505b602082108114156200076857620007676200079d565b5b50919050565b7f4e487b7100000000000000000000000000000000000000000000000000000000600052601160045260246000fd5b7f4e487b7100000000000000000000000000000000000000000000000000000000600052602260045260246000fd5b60008160011c9050919050565b6118a580620007e96000396000f3fe608060405234801561001057600080fd5b50600436106101005760003560e01c8063715018a611610097578063a9059cbb11610066578063a9059cbb146102b1578063dd62ed3e146102e1578063df791e5014610311578063f2fde38b1461032d57610100565b8063715018a61461023b5780638da5cb5b1461024557806395d89b4114610263578063a457c2d71461028157610100565b8063313ce567116100d3578063313ce567146101a157806339509351146101bf5780636a627842146101ef57806370a082311461020b57610100565b806306fdde0314610105578063095ea7b31461012357806318160ddd1461015357806323b872dd14610171575b600080fd5b61010d610349565b60405161011a91906114b4565b60405180910390f35b61013d60048036038101906101389190611043565b6103db565b60405161014a9190611499565b60405180910390f35b61015b6103fe565b6040516101689190611616565b60405180910390f35b61018b60048036038101906101869190610ff4565b610408565b6040516101989190611499565b60405180910390f35b6101a9610437565b6040516101b69190611631565b60405180910390f35b6101d960048036038101906101d49190611043565b610440565b6040516101e69190611499565b60405180910390f35b61020960048036038101906102049190610f8f565b610477565b005b61022560048036038101906102209190610f8f565b61048d565b6040516102329190611616565b60405180910390f35b6102436104d5565b005b61024d61055d565b60405161025a919061147e565b60405180910390f35b61026b610587565b60405161027891906114b4565b60405180910390f35b61029b60048036038101906102969190611043565b610619565b6040516102a89190611499565b60405180910390f35b6102cb60048036038101906102c69190611043565b610690565b6040516102d89190611499565b60405180910390f35b6102fb60048036038101906102f69190610fb8565b6106b3565b6040516103089190611616565b60405180910390f35b61032b60048036038101906103269190610ff4565b61073a565b005b61034760048036038101906103429190610f8f565b61075d565b005b606060038054610358906117a0565b80601f0160208091040260200160405190810160405280929190818152602001828054610384906117a0565b80156103d15780601f106103a6576101008083540402835291602001916103d1565b820191906000526020600020905b8154815290600101906020018083116103b457829003601f168201915b5050505050905090565b6000806103e6610855565b90506103f381858561085d565b600191505092915050565b6000600254905090565b600080610413610855565b9050610420858285610a28565b61042b858585610ab4565b60019150509392505050565b60006012905090565b60008061044b610855565b905061046c81858561045d85896106b3565b6104679190611668565b61085d565b600191505092915050565b61048a8168056bc75e2d63100000610d35565b50565b60008060008373ffffffffffffffffffffffffffffffffffffffff1673ffffffffffffffffffffffffffffffffffffffff168152602001908152602001600020549050919050565b6104dd610855565b73ffffffffffffffffffffffffffffffffffffffff166104fb61055d565b73ffffffffffffffffffffffffffffffffffffffff1614610551576040517f08c379a000000000000000000000000000000000000000000000000000000000815260040161054890611576565b60405180910390fd5b61055b6000610e95565b565b6000600560009054906101000a900473ffffffffffffffffffffffffffffffffffffffff16905090565b606060048054610596906117a0565b80601f01602080910402602001604051908101604052809291908181526020018280546105c2906117a0565b801561060f5780601f106105e45761010080835404028352916020019161060f565b820191906000526020600020905b8154815290600101906020018083116105f257829003601f168201915b5050505050905090565b600080610624610855565b9050600061063282866106b3565b905083811015610677576040517f08c379a000000000000000000000000000000000000000000000000000000000815260040161066e906115d6565b60405180910390fd5b610684828686840361085d565b60019250505092915050565b60008061069b610855565b90506106a8818585610ab4565b600191505092915050565b6000600160008473ffffffffffffffffffffffffffffffffffffffff1673ffffffffffffffffffffffffffffffffffffffff16815260200190815260200160002060008373ffffffffffffffffffffffffffffffffffffffff1673ffffffffffffffffffffffffffffffffffffffff16815260200190815260200160002054905092915050565b6107588383670de0b6b3a76400008461075391906116be565b610ab4565b505050565b610765610855565b73ffffffffffffffffffffffffffffffffffffffff1661078361055d565b73ffffffffffffffffffffffffffffffffffffffff16146107d9576040517f08c379a00000000000000000000000000000000000000000000000000000000081526004016107d090611576565b60405180910390fd5b600073ffffffffffffffffffffffffffffffffffffffff168173ffffffffffffffffffffffffffffffffffffffff161415610849576040517f08c379a0000000000000000000000000000000000000000000000000000000008152600401610840906114f6565b60405180910390fd5b61085281610e95565b50565b600033905090565b600073ffffffffffffffffffffffffffffffffffffffff168373ffffffffffffffffffffffffffffffffffffffff1614156108cd576040517f08c379a00000000000000000000000000000000000000000000000000000000081526004016108c4906115b6565b60405180910390fd5b600073ffffffffffffffffffffffffffffffffffffffff168273ffffffffffffffffffffffffffffffffffffffff16141561093d576040517f08c379a000000000000000000000000000000000000000000000000000000000815260040161093490611516565b60405180910390fd5b80600160008573ffffffffffffffffffffffffffffffffffffffff1673ffffffffffffffffffffffffffffffffffffffff16815260200190815260200160002060008473ffffffffffffffffffffffffffffffffffffffff1673ffffffffffffffffffffffffffffffffffffffff168152602001908152602001600020819055508173ffffffffffffffffffffffffffffffffffffffff168373ffffffffffffffffffffffffffffffffffffffff167f8c5be1e5ebec7d5bd14f71427d1e84f3dd0314c0f7b2291e5b200ac8c7c3b92583604051610a1b9190611616565b60405180910390a3505050565b6000610a3484846106b3565b90507fffffffffffffffffffffffffffffffffffffffffffffffffffffffffffffffff8114610aae5781811015610aa0576040517f08c379a0000000000000000000000000000000000000000000000000000000008152600401610a9790611536565b60405180910390fd5b610aad848484840361085d565b5b50505050565b600073ffffffffffffffffffffffffffffffffffffffff168373ffffffffffffffffffffffffffffffffffffffff161415610b24576040517f08c379a0000000000000000000000000000000000000000000000000000000008152600401610b1b90611596565b60405180910390fd5b600073ffffffffffffffffffffffffffffffffffffffff168273ffffffffffffffffffffffffffffffffffffffff161415610b94576040517f08c379a0000000000000000000000000000000000000000000000000000000008152600401610b8b906114d6565b60405180910390fd5b610b9f838383610f5b565b60008060008573ffffffffffffffffffffffffffffffffffffffff1673ffffffffffffffffffffffffffffffffffffffff16815260200190815260200160002054905081811015610c25576040517f08c379a0000000000000000000000000000000000000000000000000000000008152600401610c1c90611556565b60405180910390fd5b8181036000808673ffffffffffffffffffffffffffffffffffffffff1673ffffffffffffffffffffffffffffffffffffffff16815260200190815260200160002081905550816000808573ffffffffffffffffffffffffffffffffffffffff1673ffffffffffffffffffffffffffffffffffffffff1681526020019081526020016000206000828254610cb89190611668565b925050819055508273ffffffffffffffffffffffffffffffffffffffff168473ffffffffffffffffffffffffffffffffffffffff167fddf252ad1be2c89b69c2b068fc378daa952ba7f163c4a11628f55a4df523b3ef84604051610d1c9190611616565b60405180910390a3610d2f848484610f60565b50505050565b600073ffffffffffffffffffffffffffffffffffffffff168273ffffffffffffffffffffffffffffffffffffffff161415610da5576040517f08c379a0000000000000000000000000000000000000000000000000000000008152600401610d9c906115f6565b60405180910390fd5b610db160008383610f5b565b8060026000828254610dc39190611668565b92505081905550806000808473ffffffffffffffffffffffffffffffffffffffff1673ffffffffffffffffffffffffffffffffffffffff1681526020019081526020016000206000828254610e189190611668565b925050819055508173ffffffffffffffffffffffffffffffffffffffff16600073ffffffffffffffffffffffffffffffffffffffff167fddf252ad1be2c89b69c2b068fc378daa952ba7f163c4a11628f55a4df523b3ef83604051610e7d9190611616565b60405180910390a3610e9160008383610f60565b5050565b6000600560009054906101000a900473ffffffffffffffffffffffffffffffffffffffff16905081600560006101000a81548173ffffffffffffffffffffffffffffffffffffffff021916908373ffffffffffffffffffffffffffffffffffffffff1602179055508173ffffffffffffffffffffffffffffffffffffffff168173ffffffffffffffffffffffffffffffffffffffff167f8be0079c531659141344cd1fd0a4f28419497f9722a3daafe3b4186f6b6457e060405160405180910390a35050565b505050565b505050565b600081359050610f7481611841565b92915050565b600081359050610f8981611858565b92915050565b600060208284031215610fa157600080fd5b6000610faf84828501610f65565b91505092915050565b60008060408385031215610fcb57600080fd5b6000610fd985828601610f65565b9250506020610fea85828601610f65565b9150509250929050565b60008060006060848603121561100957600080fd5b600061101786828701610f65565b935050602061102886828701610f65565b925050604061103986828701610f7a565b9150509250925092565b6000806040838503121561105657600080fd5b600061106485828601610f65565b925050602061107585828601610f7a565b9150509250929050565b61108881611718565b82525050565b6110978161172a565b82525050565b60006110a88261164c565b6110b28185611657565b93506110c281856020860161176d565b6110cb81611830565b840191505092915050565b60006110e3602383611657565b91507f45524332303a207472616e7366657220746f20746865207a65726f206164647260008301527f65737300000000000000000000000000000000000000000000000000000000006020830152604082019050919050565b6000611149602683611657565b91507f4f776e61626c653a206e6577206f776e657220697320746865207a65726f206160008301527f64647265737300000000000000000000000000000000000000000000000000006020830152604082019050919050565b60006111af602283611657565b91507f45524332303a20617070726f766520746f20746865207a65726f20616464726560008301527f73730000000000000000000000000000000000000000000000000000000000006020830152604082019050919050565b6000611215601d83611657565b91507f45524332303a20696e73756666696369656e7420616c6c6f77616e63650000006000830152602082019050919050565b6000611255602683611657565b91507f45524332303a207472616e7366657220616d6f756e742065786365656473206260008301527f616c616e636500000000000000000000000000000000000000000000000000006020830152604082019050919050565b60006112bb602083611657565b91507f4f776e61626c653a2063616c6c6572206973206e6f7420746865206f776e65726000830152602082019050919050565b60006112fb602583611657565b91507f45524332303a207472616e736665722066726f6d20746865207a65726f20616460008301527f64726573730000000000000000000000000000000000000000000000000000006020830152604082019050919050565b6000611361602483611657565b91507f45524332303a20617070726f76652066726f6d20746865207a65726f2061646460008301527f72657373000000000000000000000000000000000000000000000000000000006020830152604082019050919050565b60006113c7602583611657565b91507f45524332303a2064656372656173656420616c6c6f77616e63652062656c6f7760008301527f207a65726f0000000000000000000000000000000000000000000000000000006020830152604082019050919050565b600061142d601f83611657565b91507f45524332303a206d696e7420746f20746865207a65726f2061646472657373006000830152602082019050919050565b61146981611756565b82525050565b61147881611760565b82525050565b6000602082019050611493600083018461107f565b92915050565b60006020820190506114ae600083018461108e565b92915050565b600060208201905081810360008301526114ce818461109d565b905092915050565b600060208201905081810360008301526114ef816110d6565b9050919050565b6000602082019050818103600083015261150f8161113c565b9050919050565b6000602082019050818103600083015261152f816111a2565b9050919050565b6000602082019050818103600083015261154f81611208565b9050919050565b6000602082019050818103600083015261156f81611248565b9050919050565b6000602082019050818103600083015261158f816112ae565b9050919050565b600060208201905081810360008301526115af816112ee565b9050919050565b600060208201905081810360008301526115cf81611354565b9050919050565b600060208201905081810360008301526115ef816113ba565b9050919050565b6000602082019050818103600083015261160f81611420565b9050919050565b600060208201905061162b6000830184611460565b92915050565b6000602082019050611646600083018461146f565b92915050565b600081519050919050565b600082825260208201905092915050565b600061167382611756565b915061167e83611756565b9250827fffffffffffffffffffffffffffffffffffffffffffffffffffffffffffffffff038211156116b3576116b26117d2565b5b828201905092915050565b60006116c982611756565b91506116d483611756565b9250817fffffffffffffffffffffffffffffffffffffffffffffffffffffffffffffffff048311821515161561170d5761170c6117d2565b5b828202905092915050565b600061172382611736565b9050919050565b60008115159050919050565b600073ffffffffffffffffffffffffffffffffffffffff82169050919050565b6000819050919050565b600060ff82169050919050565b60005b8381101561178b578082015181840152602081019050611770565b8381111561179a576000848401525b50505050565b600060028204905060018216806117b857607f821691505b602082108114156117cc576117cb611801565b5b50919050565b7f4e487b7100000000000000000000000000000000000000000000000000000000600052601160045260246000fd5b7f4e487b7100000000000000000000000000000000000000000000000000000000600052602260045260246000fd5b6000601f19601f8301169050919050565b61184a81611718565b811461185557600080fd5b50565b61186181611756565b811461186c57600080fd5b5056fea2646970667358221220127705d1c535c8e690e4c58254733eb83991f862f11f21c807bf171dd484dbfe64736f6c63430008000033",
  "linkReferences": {},
  "deployedLinkReferences": {}
}